:400000000040002011000000890700008907000080B500AF00F0BCFB80B584B000AF021CFB1D1A70204A3B1C0B3312781A701F4A3B1C0A3312781A700423013BFB6018E0F2
:400040001B4B1868391C0B31FA68131C5B009B18C3185B780B70164B1868391C0A31FA68131C5B009B18C3189B780B70FB68013BFB60FB68002B0ADB0D4B1968FA68131CF1
:400080005B009B185B5CFA1D12789A42D8D9094B3A1C0B3212781A60074B3A1C0A3212781A60BD4604B080BDCCF1FF0FCDF1FF0FCC0000201CFF0B4020FF0B4080B500AF4F
:4000C0002D4B12221A600C20FFF7A6FF2B4B0C221A60052002F01CFA294B2A4A1278D2B21A60052002F0B0FB02F0AAFAFA235B00181C02F085FB012002F0B2FA224B802214
:40010000D2051A60214B224A1A60224B214A126808218A431A60FA23DB00181C02F04AFA1D4B181C02F090FB1C4BB02212011A601B4B1C4A1A601C4BFE2212021A60184B5B
:400140001A4A1A601A4BFE2212021A60144B194A1A60194B802212061A60184B42221A60174B40221A60174B41221A60024B00221A60BD4680BDC046300010402CFF0B40D7
:4001800028FF0B40D9F1FF0F0C020B407C002E406A2D00006CF02E40DC050000080301400000014042FF00800003014040FF00800403014041FF008008010B402C01014055
:4001C000140101401001014080B582B000AF72B6514B00221A60FB1D00221A7023E0FB1D1A78131C5B009B185B004C4A9B183B603B681A78597809020A43997809040A432B
:40020000DB781B0613431A1C3B6819795B791B020B439BB2101C191C00F03EFBFB1D1A78FB1D01321A70FB1D1B78012BD7D93C4A3C4B101C191C00F03FFB3B4B802252005B
:400240001A803A4B01221A70394B8022D2021A60384B394A1A60394BC02292041A60384BCC2292051A60374B03221A60364B374A1A60374B02221A60364B42221A60364B29
:400280008022D2021A60354B02221A60344BC0221A60344B902292031A60334B01221A60324B01221A60324B324A1A60324B802292021A60314B992212041A60304B80225C
:4002C00092051A602F4B992212041A602E4B8022D2051A602D4B2D4A1278D2B202210A43D2B21A702A4B2A4A1278D2B23C218A43D2B214210A43D2B21A70244B234A1278A6
:40030000D2B216210A43D2B21A70FFF7D7FE00F013FBBD4602B080BD6CF02E408422010090220100B422010000600F4002600F4014000B4000000240300000EE000202408E
:400340000003024000000440080004403200D8000C0004400002044008020440180204400003044008030440000404401804044000500F400400990004500F4020500F4080
:4003800028500F4030500F4038500F4000700F4001700F4010B5064C2378002B07D1054B002B02D0044800E000BF0123237010BDB0030020000000000C22010008B5084BCE
:4003C000002B03D00748084900E000BF07480368002B03D0064B002B00D0984708BDC046000000000C220100B4030020C80000200000000080B500AF00F016F802F086FDCD
:40040000074B1B78012B07D100F08EF9054B1B78012B01D100F030F800F04CF8EEE7C046CD030020CC03002080B500AF62B6114B181C00F075FC00F09FFB00F0FBFAFF20FA
:4004400000F01CFCFF2000F029FCFF2000F074FB062000F0D7FA062000F0BCFA062000F02DFC01F045F801F049FC002001F0ACFDBD4680BD0505000080B582B000AF01F061
:4004800075FD01F095F8C04601F0BEF8031C002BFAD1002001F08AFD031C1A1CBB1D1A80BB1D1B88DBB2181C00F0B6F8BD4602B080BDC04690B583B000AF01F097FBFC1D96
:4004C000032002F01BFD031C237072B6BC1D03F0D2FF031C2370FB1D1B78032B06D1BB1D1B78042B08D102F0C3F905E0BB1D1B78022B01D002F0BCF962B601F095FBBD4644
:4005000003B090BD80B584B000AF786039607B68282B0CD004D8012B09D0262B0BD06AE0422B15D04C2B2BD0412B0DD063E0002000F03EFC5FE0314B1B78042B03D10020BE
:4005400000F036FC57E056E02D4B01221A7052E02B4B00221A702B4B00221A702A4B01221A702A4B00221A70284B00225A70274B00229A70254B0022DA7000F075F83AE0BE
:400580003B68FB60FB689A89214B5B899A4215D1FB685B681A781D4B1A70FB685B685A781A4B5A70FB685B689A78184B9A70FB685B68DA78154BDA7000F056F8FB689A8949
:4005C000134B9B889A4207D1FB685B681A780D4B1A700D4B01221A700E4B1A785B781B021A4300231204120C1B0C1B041343181C0CF036FEC046BD4604B080BD1025002049
:40060000CD030020CC030020CE03002004250020482801001825002080B586B000AF021CFB1D1A703B1C0C330E221A813B1C0C33FA1D1A603B1C0C3301229A80094B3A1CF4
:400640000C3219785B781B02194300230904090C1B0C1B040B43181C111C0CF0B7FDBD4606B080BD1825002080B582B000AFFB1D2A4AD2781A70294B1B78FA1D127853436E
:40068000181CFF2102F092FB031C1A1CBB1D1A70224B5B78FA1D12785343181CFF2102F085FB031C1A1C7B1D1A701C4B9B78FA1D12785343181CFF2102F078FB031C1A1C3D
:4006C0003B1D1A70BB1D1B78DB43DBB2181C00F0D5FA7B1D1B78DB43DBB2181C00F0DEFA3B1D1B78DB43DBB2181C00F025FA0C4B13221A810A4B094A1A60094B04229A8087
:40070000074B0422DA80064A064B101C00211A1C00230DF0E1F9BD4602B080BD04250020F82400201825002080B584B000AF134B1B78002B1FD0114B00221A70104B1A78DD
:400740003B1C0C331A703B1C0C3300225A703B1C0F221A813B1C3A1C0C321A603B1C02229A803A1C074B101C00211A1C00230DF0B3F902F0CBFBBD4604B080BDCE03002026
:40078000CC0300201825002080B500AFFEE7C04680B586B000AF224B7B61224B3B61204B7B6135E03B691B68FB603B695B68BB603B699B683B6000237B600CE0FB681A6841
:4007C000BB681A60BB680433BB60FB680433FB607B6804337B607A683B689A42EED13B69DB683B6000237B6008E0BB6800221A60BB680433BB607B6804337B607A683B68C7
:400800009A42F2D13B6910333B617B69013B7B617B69002BC6D102F02BFBFFF7EBFDFEE7010000002429010080B582B000AF154B144A126801218A431A6000237B600FE026
:400840007B68032B04D8104B7A689200D35800E00E4B0F4A796889008B507B6801337B607B682F2BECD9FFF7AFFC0A4B00221A60044B044A126801210A431A60BD4602B07F
:4008800080BDC04600001040000000008907000000000020C000002080B582B000AF786039607A683B68101C00211A1C02F01EFBBD4602B080BDC04680B586B000AF786091
:4008C000396000233B6100237B612EE07B699B007A68D3181B68BB603B1C0F33BA681A70BB68FF229343BB6017E03B695B003A68D3181B781A1CBB68D3183A69520039683F
:400900008A1852781A703B6901333B613B1C0F331A783B1C0F33013A1A703B1C0F331B78002BE2D17B6901337B617B69082BCDD9BD4606B080BDC04680B500AF064B0322B3
:400940001A60064B03221A60054B00221A60012000F008F8BD4680BD3000304030003140000E3F4080B584B000AF021CFB1D1A70154B1B68FB60FB1D1B78002B05D0FB68DE
:40098000802212061343FB6003E0FB685B005B08FB600D4BFA681A600C4B1B68FB60FB1D1B78002B05D0FB68982292051343FB6003E0FA68064B1340FB60044BFA681A6085
:4009C000BD4604B080BDC04680033A4008010B40FFFFFFD980B582B000AF021CFB1D1A70064B064A1168064A1140FA1D127892040A431A60BD4602B080BDC0460803044000
:400A0000FFFFE3FF80B582B000AF021CFB1D1A70064B064A1168064A1140FA1D127892040A431A60BD4602B080BDC04608020440FFFFE3FF80B500AF064B1B78002B04D159
:400A400000F00AF8034B01221A7000F03DF8BD4680BDC046CF03002090B583B000AFFF2000F040F8B82000F057F8012000F064F8012000F071F8FC1D01F053FD031C2370B4
:400A80000F4B0F4A1278D2B201210A43D2B21A70FB1D1B78181C01F048FD0A4B094A1278D2B202218A43D2B21A70064B054A1278D2B204218A43D2B21A70BD4603B090BD7E
:400AC00092000F4072000F4080B500AF044B044A1278D2B201210A43D2B21A70BD4680BD72000F4080B582B000AF021CFB1D1A70FB1D1B78002B07D0054BFA1D12781A7049
:400B0000044BFA1D12781A70BD4602B080BDC04642000F4002000F4080B582B000AF021CFB1D1A70034BFA1D12781A70BD4602B080BDC04612000F4080B582B000AF021C85
:400B4000FB1D1A70034BFA1D12781A70BD4602B080BDC04622000F4080B582B000AF021CFB1D1A70034BFA1D12781A70BD4602B080BDC04632000F4080B500AF064B1B7861
:400B8000002B04D100F00AF8034B01221A7000F03DF8BD4680BDC046D003002090B583B000AFFF2000F040F8B82000F057F8012000F064F8012000F071F8FC1D01F0B1FCC7
:400BC000031C23700F4B0F4A1278D2B201210A43D2B21A70FB1D1B78181C01F0A6FC0A4B094A1278D2B202218A43D2B21A70064B054A1278D2B204218A43D2B21A70BD462E
:400C000003B090BD93000F4073000F4080B500AF044B044A1278D2B201210A43D2B21A70BD4680BD73000F4080B582B000AF021CFB1D1A70FB1D1B78002B07D0054BFA1D18
:400C400012781A70044BFA1D12781A70BD4602B080BDC04643000F4003000F4080B582B000AF021CFB1D1A70034BFA1D12781A70BD4602B080BDC04613000F4080B582B0FA
:400C800000AF021CFB1D1A70034BFA1D12781A70BD4602B080BDC04623000F4080B582B000AF021CFB1D1A70034BFA1D12781A70BD4602B080BDC04633000F4080B582B0B2
:400CC00000AF021CFB1D1A70064B064A1168064A1140FA1D127852050A431A60BD4602B080BDC04608030440FFFF1FFF80B500AF064B00221A70064B00221A70054B002258
:400D00001A7000F009F8BD4680BDC0461B250020142500201A25002080B500AFBD4680BD90B585B000AF78603B1C0E3301221A80194B1B78002B04D1FFF7D8FF164B012218
:400D40001A707B68002B1FD0144B7A681A603C1C0E34134A134B101C191C172202F0ECF8031C23803B1C0E331B88002B0CD10E4B01221A703C1C0E340C4B181C14210F22D6
:400D80000CF092FE031C23803B1C0E331B88181CBD4605B090BDC046D803002008250020CD10000000040020102500209424010090B585B000AF021CFB1D1A70294B1B7824
:400DC000042B42D1284B1B78DBB21A1C042313403BD1FB1D1B78002B0BD1244B1E221A82224B5B6820221A80204B5B6830225A8010E0FB1D1B78012B0CD11C4B96221A82A0
:400E00001A4B5B68C822D2001A80184B5B688022D2015A80164BFA1D12781A703C1C0E34124B181C0BF08EF8031C23803B1C0E331B88002B08D10C4B1B78DBB20422134393
:400E4000DAB2094B1A7005E004E03B1C0E33832252001A803B1C0E331B88181CBD4605B090BDC046102500201B250020000100201A25002080B584B000AF78600A1CFB1C3A
:400E80001A700023BB60BB68002B20D07B689A79BB681A703B1C0F3300221A7012E03B1C0F331B780133BA68D3183A1C0F32127879688A5C1A703B1C0F331A783B1C0F33AF
:400EC00001321A703B1C0F331B78052BE7D9BD4604B080BD80B582B000AF78607B681B781A1C7B6801331B781B029BB213439BB2181CBD4602B080BD90B585B000AF7860AD
:400F00003B1C0F3300221A707B689A890B239A4237D17B681A1D7B683C1C0F34101C00211A1C40230CF0D8FD031C23703B1C0F331B78002B1DD17B685B68181CFFF7CAFF75
:400F4000031C1A1C022313409BB2002B08D0104B1B68822251007A68081C111C984708E00B4B1B680622111CFF317A68081C111C9847084B1B78DBB201229343DAB2054BCF
:400F80001A703B1C0F331B78181CBD4605B090BD082500201B25002090B585B000AF78603C1C0F347B68181CFFF7A6FF031C2370144B1B78DBB21A1C012313401FD13B1C22
:400FC0000F331B78002B16D03B1C083312229A707B689A893B1C08331A803B1C08333A1C0F321278DA707B683A1C08321868111C0CF0CEF803E07B6818680CF031F9BD46BB
:4010000005B090BD1B25002080B582B000AF7860BD4602B080BDC04680B500AF034B00225A70024B00221A70BD4680BD1825002080B582B000AF7860BD4602B080BDC046CE
:4010400080B500AFBD4680BD80B584B000AF78603B1C0E3300221A707B689B79002B1CD13B1C0F3300221A7012E03B1C0F331B787A68D35C002B04D03B1C0E3301221A7051
:401080000BE03B1C0F331A783B1C0F3301321A703B1C0F331B78052BE7D93B1C0E331B78181CBD4604B080BD80B582B000AF021CBB1D1A80BD4602B080BDC04680B582B050
:4010C00000AF7860BD4602B080BDC04680B584B000AF021C3960FB1D1A70A34B1B78DBB201221343DAB2A04B1A70FB1D1B78712B00D91EE19A009D4BD3181B689F463B1C2D
:401100000C3307221A703B1C0C3300225A703B1C0C33181C03F0DEF93B1C0C3307221A703B1C0C3301225A703B1C0C33181C03F0D1F98F4B1B68181CFFF786FF031C002BFE
:4011400011D08B4B1B68181C01F0E4FE884B1B68181C0021FFF78EFE854B1B68181C0121FFF788FE19E0834B1A78834B1A70834B1A78814B5A70824B1A787F4B9A707E4B39
:40118000181C01F0C7FE7C4B181C0021FFF772FE794B181C0121FFF76DFE03200AF094FD784B04221A70C5E03B68181CFFF740FFC0E03B681A78744B1A70BBE06A4B1B7875
:4011C000DBB21A1C202313400ED1704B1B78102B02D16E4B0522DA706D4B1A786B4B101C191C0AF079FEA5E0A4E03B68181CFFF765FF9FE03B68181CFFF760FF614B0222AA
:401200001A7097E05F4B04221A7093E05D4B1B78022B41D0544B1B78DBB21A1C012313403AD0514B1B78DBB21A1C042313400BD0544B03221A704C4B1B78DBB204229343A9
:40124000DAB2494B1A7027E0474B1B78DBB21A1C082313400BD04B4B04221A70424B1B78DBB208229343DAB23F4B1A7014E0454B1B78032B10D1434B04221A70454B1B7862
:40128000002B09D10120FFF793FD031C002B03D13C4B03221A704DE04CE03B681B88181CFFF702FF46E03A4A3B68111C1A1C0223081C111C1A1C01F010FE354B1B789A005C
:4012C000354BD318354A111C1A1C0423081C111C1A1C01F002FEFFF7B3FE2BE0FFF79CFE28E03B685B88162B05D83B1C0E333A6852881A8003E03B1C0E3317221A803B6875
:401300003A1C0E321288198800230904090C1B0C1B040B43181C111C0BF046FF0AE03B68181CFFF739FE05E03B68181CFFF76CFE00E0C0460C4B1B78DBB21A1C112313403E
:401340000FD0094B1B78DBB201229343DAB2064B1A70134B1B68FA1D11783A68081C111C9847BD4604B080BD1B250020802601001C0100207CF1FF0F140100207DF1FF0F03
:401380007BF1FF0F10250020142500205C010020182500201A250020802401000C2500200825002080B582B000AF00237B6007E00A4A7B68D31800221A707B6801337B60CE
:4013C0007B68002BF4D000F00BF8002000F068FB00F036F9BD4602B080BDC0463425002080B582B000AF244B1B68DAB2234B1A70224B1B787B607B680F2293437B60204B8E
:401400001B78DBB21A1C0F2313407A6813437B607B68F02293437B60194B1B78DBB21A1CF02313407A6813437B60134B7A681A60144B154A1A60154B154A1A60154B1B68D7
:401440007B607B680F2293437B607B68062213437B60104B7A681A60102001F0B1F90E4B1020191C01F01CF91020032101F03EF9BD4602B080BDC04600FF28401C2500200E
:4014800062F1FF0F0800284000020001040028400008A001000402406120000080B582B000AF01F001F800F0B7FF0020002100F0C3FF0020002101F007F8FF2000F096FF0E
:4014C000402000F0DBFF084B1B687B607B68074A13437B60044B7A681A60102001F05AF9BD4602B080BDC046040028400010088080B500AF0C4B1B78002B04D1FFF752FF7C
:40150000094B01221A70FFF7C9FF00F013FE074B01221A70064B064A12688021C9030A431A60BD4680BDC046A1100020981000200400284080B584B000AF021CFB1D1A707A
:40154000FB1D1A78FB1D01321A70FB1D1B78012B00D10BE0FB1D1B78074A101C191C00F0B7FA031CFB60FB68002BE9D0FB1D1B78181CBD4604B080BDA010002080B582B090
:4015800000AF7860084B00221A707B68DAB2074B1A70054B81221A707B68181C00F03EF9BD4602B080BDC0469A1000209B10002080B500AF124B00221A70124BFF221A701D
:4015C000104B1B78DBB2181CFFF7B4FF031C1A1C0C4B1A700B4B1B78DBB2002B0DD1084B1B78DBB201221343DAB2054B1A70054B1B78DBB2181C00F011F9BD4680BDC046A8
:401600009A1000209B10002080B500AF044B1B78DBB21A1C01231340181CBD4680BDC0469A10002080B582B000AF7860034B7A685200D35A181CBD4602B080BD9C10002042
:4016400080B582B000AF00237B6006E07B68181C00F064F87B6801337B607B68002BF5D0BD4602B080BDC04690B587B000AF786002237B610123391C13311A1C9218D318C4
:401680000B7001223B1C123392001A703C1C113400F047FF031C23701E4B7A699200D3581B68FB603B1C12331B780F22111C99400B1CDA43FB681340FB603B1C12331B787E
:4016C0000422141C9C40231CFA681343FB60124B7A699200D358104A796989008A581268391C133109780720041C8C40211CC9430A401A60074B7A699200D358FA681A6040
:401700003B1C11331B78181C00F00FFFBD4607B090BDC046682801008028010090B589B000AF786002237B6101223B1C133392001A700123391C12311A1C9218D3180B701E
:401740000023FB61314A7B68D3181B78BB61304B7A699200D3582E4A796989008A581268391C133109780F20041C8C40211CC9430A401A60BB69022B01D10023BB61BB69D0
:40178000012B01D00623FB613C1C113400F0C9FE031C23701F4B7A699200D3581B68FB603B1C12331B780722111C99400B1CDA43FB681340FB603B1C12331B78FA69141C44
:4017C0009C40231CFA681343FB60124B7A699200D358FA681A603B1C11331B78181C00F0A4FE0D4B7A699200D3580B4A796989008A58126801210120041C8C40211CC94362
:401800000A401A60BD4609B090BDC0463425002068280100802801009828010090B589B000AF78603B1C173300221A703B1C17331A785E4B9200D358BB615D4A7B68101CA4
:40184000191C00F045F9031C3B61BA69594B9A420AD83B69BA69111C99400B1CBB61BB69FF2212041343BB6100F01EFE00F0D4FD514A7B68D3181B78013B9BB2181C002141
:4018800000F0DAFD4D4A7B68D3181B78013B9BB2181C002100F018FEFF2000F0A7FD402000F0ECFD464B1B78002B39D0102000F087FF444B1B68FB61FB6940221343FB61B5
:4018C000FB6980229343FB613B1C0F333B497A688A1812781A703B1C0E3337497A688A1812781A703B1C0F331A78131C1B039B1A1B041A1C3B1C0E331B78391C1731087881
:401900002A49800041584B439A4203D2FB6980221343FB612B4BFA691A60102000F03AFF102000F04DFF284B1B68FB61FA69274B1340FB61264A7B68D3181B781A1C2549C1
:401940007B68CB181B781B041343FA691343FB611D4BFA691A601B4B1B68FB61FA691E4B1340FB61FB691D4A1343FB61102000F011FF7B68181CFFF777FE3C1C0D3400F0C7
:40198000D0FD031C23700F4BFA691A60002000F0BFFD134BBA691A603B1C0D331B78181C00F0C3FDBD4609B090BDC0466401002030250020FFFFFEFF3825002024250020B2
:4019C00099100020040028400800284000FF80FF282500202C250020FF1FDFFF200020000C00284080B586B000AF7860234B1B6899B2234B7A685200D15200237B61214BD8
:401A00007A699200D258204B9A4215D81F4A7B68101C191C00F05CF8031C3B61184B7A685200D35A1A1C3B69111C19410B1C99B2134B7A685200D1527B68181CFFF76EFE62
:401A4000102000F0BDFE124B1B68FB60FA68114B1340FB60FB68A02212021343FB600C4BFA681A600C4B0C4A11680C4A0A401A60102000F08FFEBD4606B080BD0C00284070
:401A80009C10002064010020FFFFFEFF3025002004002840FF1FDFFF0800284000FF80FF80B584B000AF78607A68032313407B60064B1B68FB607B685B02FA681343FB6067
:401AC000024BFA681A60BD4604B080BD0400284080B584B000AF786039603B68DB08FB603A680723134001229A403B1C0B331A707A68FB68D3181B783A1C0B321278134085
:401B0000DBB2002B01D0012300E00023181CBD4604B080BD80B586B000AFF860B9607A60BB68DB087B61BA680723134001229A403B1C13331A707B68002B0DD0FA687B6992
:401B4000D318F9687A698A1811783A1C133212780A43D2B21A700EE0FA687B69D318F9687A698A181278391C13310978C943C9B20A40D2B21A70BD4606B080BD80B584B0A4
:401B800000AF78600023BB600023FB6014E07B68181CFFF7F3FCC046FFF736FD031C012BFAD07B68181CFFF73DFD031CBA68D318BB60FB680133FB60FB68002BE7D0BB68C6
:401BC0009BB2181CBD4604B080BDC04680B500AF044B1B68002B02DA034B01221A70BD4680BDC04604002840A410002080B500AFFFF7ECFF102000F0E3FD094B084A116848
:401C0000084A0A401A60064B054A1268520052081A6000F049FC00F0FFFBBD4680BDC04604002840FFEFF7FF80B500AFFF2000F025FCFF2000F0DAFB034B1B78002B01D0C4
:401C4000FFF72CFCBD4680BDA410002080B584B000AF78603B1C0F3315497A688A1812781A70144B7A685200D15A134B7A685200D152124A7B68D31800221A70104A7B682D
:401C8000D31800221A703B1C0F331B783A1C0F3212780C49895C0C4AD154064B7A685200D15A0A4B7A685200D152BD4604B080BD642801009C100020A8100020AC1000202E
:401CC000B01000206C010020B81000204825002080B582B000AF78607B68181CFFF74EFCC046FFF791FC031C002BFAD17B68181CFFF7ACFFBD4602B080BDC04680B582B008
:401D000000AF00237B6006E07B68181CFFF7E0FF7B6801337B607B68002BF5D0BD4602B080BDC04690B587B000AF78603B1C0F337A497A688A1812781A703B1C0F331A7845
:401D40003B1C0E3376498A5C1A703B1C1033754A796849008A5A1A80734B1B78002B15D0724B7A685200D35A3C1C10343A1C10321288101C191C00F055F9031C23806B4B37
:401D80007A685200391C10310988D1527B68DAB26749644B081C111C1A1C00F05BFE654B7A685200D35A3A1C103212889A4212D3614A7B68D31800221A705E4B7A68520001
:401DC000D25A3B1C1233391C103109888A1A1A8001237B610CE0574B7A685200D15A3B1C12333A1C103212888A1A1A8000237B617B69002B28D13B1C0F331B784F4AD35CC2
:401E00003A1C123212889A421ED94B4A7B68D3181A784B497B68CB181B789A4209D37B68181CFFF713FF444A7B68D31800221A704CE0414A7B68D3181B780133DAB23E497B
:401E40007B68CB181A7041E03B1C0E331B789BB23A1C123212889A420CD93B1C0F331B78364AD35C3A1C123212889A422ED27B69002B2BD12F4B7A685200D35A1B02BB607B
:401E8000304A7B68D3181B78BA681343BB603B1C10331B88BA68D318BB60264B7A685200D35ABA68D31ABB60BB681B0A99B2214B7A685200D152BB68DAB222497B68CB181D
:401EC0001A701D4A7B68D31800221A703B1C0E331B789BB23A1C123212889A4216D97B69002B13D03B1C12331B88FF2B05D9164A7B68D318FF221A700DE03B1C12331B88C2
:401F0000DAB211497B68CB181A7004E00E4A7B68D31800221A70BD4607B090BD642801003C2500209C100020690100204825002068250020A810002040250020442500202A
:401F400068010020AC100020B010002080B582B000AF78607B68181C00F066F97B68181CFFF7E0FEBD4602B080BDC04680B582B000AF00237B6011E00B4A7B68101C191C47
:401F8000FFF7A6FD031C3B603B68002B03D07B68181CFFF7DBFF7B6801337B607B68002BEAD0BD4602B080BDA010002080B582B000AF7860034A7B68D3181B78181CBD46F7
:401FC00002B080BDB010002080B584B000AF78603B1C0F3300221A7001213B1C0E333A1C0F3212788A181A703B1C0F331B780C4A101C191C0122FFF78DFD3B1C0F331A7825
:402000003B1C0F3301321A703A1C0F323B1C0E3312781B789A42E7D3BD4604B080BDC046A010002080B584B000AF0A1CBB1D011C19803B1D1A80BB1D1A883B1D1B88D31880
:40204000FB603B1D1B885B00FA68D318FB60FB689B08FB60FB689BB2181CBD4604B080BD80B500AF102000F0ABFB2C4B01221A602B4B1B78DBB2181CFFF7B4FC294B1B7899
:40208000DBB2DBB25BB2002B08DA264B1B78DBB201229343DAB2234B1A703AE0204B1B78DBB2181CFFF746FA031C1A1C1C4B1A701B4B1B78DBB2002B06D1194B1B78DBB27D
:4020C000181CFFF7ABFB24E0164B1B78DBB201229343DAB2134B1A70124B1B78DBB21A1C4023134015D0104B00221A700DE00E4B1B780D4A12780D49895C0D4AD1540A4B03
:402100001B780133DAB2084B1A70074B1B78002BEDD0102000F03EFBBD4680BD140028409B1000209A100020BC10002020250020A010002080B582B000AF324B01221A7097
:40214000304B01225A702F4B01229A702D4B0C22DA802C4B2C4A9A802A4B2C4A9A6000F0D9F800233B6007E0294B3A6892002949D1503B6801333B60224B5B781A1C3B6838
:402180009A42F1D800237B600CE0234A7B68D31804221A70214A7B68D31801221A707B6801337B607B68002BEFD000F0BFF8154A1B4B101C191C00F097FB124B181C00F030
:4021C000A5FB184B01221A700E4A154B101C191C00F08AFB0B4B181C00F0BCFB094B181C00F0BEF800237B6006E07B68181C00F01BF87B6801337B607B68002BF5D0BD467C
:4022000002B080BD68250020CC040000C8280100640100200000FF0F24250020382500209A0D00009910002090B587B002AF7860314A7B68D3181B78FB607B68D9B2FB684B
:40224000DBB22E482E4A2F4C00942F4C019400F08DFC3B1C0B332B49FA688A1812781A70294AFB68D3181A782849FB68CB181A703B1C0B331B78DB2B09D83B1C0B331B785F
:40228000DB08DAB22249FB68CB181A7031E03B1C0B331B78EC2B09D83B1C0B331B781B09DAB21B49FB68CB181A7022E03B1C0B331B78F42B09D83B1C0B331B785B09DAB2F5
:4022C0001349FB68CB181A7013E03B1C0B331B78F92B09D83B1C0B331B789B09DAB20C49FB68CB181A7004E0094AFB68D31800221A70BD4605B090BD6428010068250020A5
:402300009C100020502500203C250020442500204C25002080B500AF034B034A126840218A431A60BD4680BD0400284080B582B000AF094B1B687B607A68084B13407B6029
:402340007B688022920013437B60034B7A681A60BD4602B080BDC04608002840FFFCFFFC80B584B000AF78600023FB6017E01A4AFB68D3181B785B08DAB21849FB68CB18CD
:402380001A70154AFB68D3181B7801335B08DAB21149FB68CB181A70FB680133FB607B681B781A1CFB689A42E1D8102000F008FA0B4B1B68BB60BA680A4B1340BB60BB6852
:4023C000094A1343BB60064BBA681A60102000F0E1F9BD4604B080BD282500202C25002008002840FFFCFFFC0002000180B582B000AF7860C046064B1B68002BFBDB044BDF
:402400007A68120203490A431A60BD4602B080BD000001404000008080B500AFC046044B1B68002BFBDB024B024A1A60BD4680BD000001404000004080B584B000AF0A1C91
:40244000BB1D011C19807B1D1A700B4B1A6807231340FB60BB1D1B881A02FB681A437B1D1B78D900FF230B401343BB60024BBA681A60BD4604B080BD0003014080B582B03B
:4024800000AF7860C046064B1B68002BFBDB044B7A68120203490A431A60BD4602B080BD000001404100008080B500AFC046044B1B68002BFBDB024B024A1A60BD4680BD5E
:4024C000000001404100004080B584B000AF0A1CBB1D011C19807B1D1A700B4B1A6807231340FB60BB1D1B881A02FB681A437B1D1B78D900FF230B401343BB60024BBA68D4
:402500001A60BD4604B080BD04030140000000000230800803D00138FDD1C046C046C0467047EFF3108072B6704780F31088704780B500AF0B4B0B4A126801218A431A6003
:40254000094B094A126830218A4310210A431A60054B054A126807218A4301210A431A60BD4680BD00F02E4000FF2E4080B500AF0E4B0E4A126802218A431A600C4B0C4AFC
:40258000126807218A4302210A431A60084B084A126830218A4320210A431A60034B034A126801210A431A60BD4680BD00F02E4000FF2E4080B584B000AF78600023FB6006
:4025C000154B154A126801210A431A60134B144A1A60144B134A1268802109020A431A607B68002B13D01023FB600DE0012000F02BF900F019F8031C002B02D00023FB609E
:4026000005E07B68013B7B607B68002BEED1FB68181CBD4604B080BD60F02E4078002E400220000010002E4080B500AF034B1A6801231340181CBD4680BDC0460C002E4000
:4026400080B500AFFFF774FF044B044A1268802109060A431A60BD4680BDC04600F02E4080B584B000AF78600C4B1A6801231340FB607B68002B02D0012B03D005E0FFF786
:4026800057FF06E0FFF772FF03E0002000F0AEF8C046FB68181CBD4604B080BD00F02E4080B584B000AF021C3960FB1D1A7080239B05FB60FB1D1B781F2B02D9002000F000
:4026C00095F8FB1D1B7810339B00FA68D3181B68BB60FB1D1B7810339B00FA68D3183A681A60BB68181CBD4604B080BD90B587B000AF0A1CFB1D011C1970BB1D1A70BB1D53
:402700001B78032B02D9002000F070F8FB1D1B781F2B02D9002000F069F8FB1D1A7803231340DB0006337B613C1C1334FFF7F9FE031C2370FB1D1B789B08DBB29B00144920
:402740005B181B68FB607B690322111C99400B1CDA43FB681340FB60BB1D1A787B69111C99400B1CFA681343FB60FB1D1B789B08DBB29B00064A9B18FA681A603B1C133324
:402780001B78181CFFF7D1FEBD4607B090BDC04600E400E080B582B000AF021CFB1D1A70064BFA1D11781F220A400121081C9040021C1A60BD4602B080BDC04600E100E003
:4027C00080B582B000AF021CFB1D1A70064BFA1D11781F220A400121081C9040021C1A60BD4602B080BDC04680E100E080B582B000AF021CFB1D1A7001BEBD4602B080BD19
:4028000080B582B000AF786008E00C4B1B68181CFFF77EFE7B680A4A9B187B607A6880231B029A42F1D8074B1B687A685343181CFFF76EFEBD4602B080BDC04680010020BA
:402840000080FFFF7801002080B582B000AF021CBB1D1A80BB1D1B88044A12785343181CFFF756FEBD4602B080BDC0467C01002090B583B000AFFC1DFFF753FE031C237066
:40288000074B074A126804218A431A6030BFFB1D1B78181CFFF749FEBD4603B090BDC04610ED00E0F7B59C180023071C01910092237008268025207828432070B968009822
:4028C0004A6A9047019B984202D22078A8432070013E6D08002EEED12178CFB2F82F01D9082671422170F7BD70B5051C0E1C00242B789C4208D2A868221C0368311C281CD5
:40290000FFF7D0FF0134F3E770BD000038B5051C00242B789C4218D2AA681168085DC3080F2B00D90F230949D268C85C1055AA680748042B03D9536B211C012202E0536BBA
:40294000211C002298470134E3E738BDB828010030250020F0B5051C89B000266B789E4265D2AC68206A815D0291002901D101220292E7692978BB5D00930098884201D31D
:402980000136EBE7A268009F0F21D35DA4690B402849B000049300227B00225003905818254C0590254819191B18069107933C1C0192009F029AD1198C42E1D2AF68AB88FF
:4029C000FA68E888115D584300F0F0F93968095D00F09EF9049B1A49584340005A2802D949084008FAE7BF690A0C039913047B50144F154B8208385514491A55144AC00859
:402A00000F27085517550199012305985A424252069A0798002353524352A9688B681A191078013407401770019A0232C0E709B0F0BDC0465C2500207425002060250020CD
:402A40000000FFFF64250020782500205825002054250020F0B53E4F4B00DC5B9A5A89B0DA53161B3B4F02967D5C9C466C003A4D059467467C5B394E394F735C039466466F
:402A8000F55B8768374C0495BD68665C6C5C029D0696059EEF0F0794F4190F273C40EE170194AC1974409C4203D2012B05D0013B00E00133FF263F2B00D89E00274D019FA6
:402AC0006B540F2F29D0002F24D0B44225D8079C039D26090596141EAC4200D92C1C049FBA4200D23A1C059E09250027B5427F41F5190A2D13D1171B0397039E5F1CB34200
:402B000005D9069FBE089E42BF417E429F1B164B5F5404E0141C019D01E0141C00256E4637790C4B66465F540B4F0F23BC530C4C2D01A253826897687E1834782340337095
:402B40008068826851180F783D430D7009B0F0BD60250020542500205C2500205825002074250020642500207825002010B50E480E4A525C415CFF203F2901D88C00E0B259
:402B80004CB2002C02DB4C00E1B200E0FF21824202D95008C1B200E0021C01240298A243C254039AD15410BD782500206425002080B582B000AF78600A1CBB1C1A80BB1CBC
:402BC0001A887B681A60BD4602B080BD80B582B000AF78600A1CBB1C1A80BB1C1A887B681A60BD4602B080BD80B582B000AF021CBB1D1A80BB1D1B88181CFFF725FEBD4626
:402C000002B080BD80B500AF00F068F8BD4680BD80B500AF00F06CF8BD4680BD80B500AF00F066F8044B181C00F024F8032000F02DF8BD4680BDC046052D000080B500AF64
:402C4000024B181C00F004F8BD4680BD052D000080B582B000AF786000F04AF87B68181C00F008F8032000F011F800F037F8BD4602B080BD80B582B000AF7860024B7A6804
:402C80001A67BD4602B080BD0000002090B585B000AF021CFB1D1A700623FB603C1C0B34FFF73FFC031C23700B4B0B4A1268C021101C8843011CFA1D1078FA68041C94408B
:402CC000221C0A431A603B1C0B331B78181CFFF72CFCBD4605B090BD0CE400E080B500AF024B802252011A60BD4680BD00E100E080B500AF024B802252011A60BD4680BDFF
:402D000080E100E080B500AF0FF06CFABD4680BD002934D00123002210B488422CD301242407A14204D2814202D209011B01F8E7E400A14204D2814202D249005B00F8E76D
:402D4000884201D3401A1A434C08A04202D3001B5C0822438C08A04202D3001B9C082243CC08A04202D3001BDC082243002803D01B0901D00909E3E7101C10BC704700280E
:402D800001D00020C04307B4024802A14018029003BDC046D90000000029F0D003B5FFF7B9FF0EBC4243891A1847C046002941D010B4041C4C40A44601230022002900D570
:402DC0004942002800D5404288422CD301242407A14204D2814202D209011B01F8E7E400A14204D2814202D249005B00F8E7884201D3401A1A434C08A04202D3001B5C08C5
:402E000022438C08A04202D3001B9C082243CC08A04202D3001BDC082243002803D01B0901D00909E3E7101C6446002C00D5404210BC7047002806D003DB0020C0434008E0
:402E400001E08020000607B4024802A14018029003BDC046190000000029EBD003B5FFF7A7FF0EBC4243891A1847C0467047C04670B50E4B0E4D0024ED1AAD101E1CAC4225
:402E800004D0A300F35898470134F8E70FF038FD084B094D0024ED1AAD101E1CAC4204D0A300F35898470134F8E770BD0C2901000C2901000C2901001429010030B50023A6
:402EC000934208D0C55C0133CC18013C2478A542F6D0281B00E0002030BD10B50023934203D0CC5CC4540133F9E710BD031C8218934202D019700133FAE7704710B501F01A
:402F000067FA10BD10B501F079FA10BD10B500F0DBF810BD10B50749044609780220002907D1204601F090FA002802D1204608F0B5FF10BD96020020F7B51F4E00243078BD
:402F400015460F46002804D00824B76075802046FEBD002F00D1012401F050FA0098002805D0172D03D301204002854201D90124EBE7002CE9D12946384600F023F8040060
:402F8000E3D1706800F01CF80400DED1706800F015F80400D9D101F039FA0400D5D1009806F038FB0400D0D106F04AFB0400CCD101203070C9E7000084010020002070474E
:402FC00000207047F8B50D4607460026FFF736FEFFF71EFE00F02EFA040065D100F0B8FB040061D13449084600F0D4FD0404240C5AD1A80705D0A807800F0421081A4019CF
:4030000085B2172D02D968002E3886B22B48301881B2384601F0C0F8040045D1284F03460246002825D127495E008E5B294610318E4207D99000C01941800221521C41705C
:40304000D2B215E08E420BD10020787690001D49C0194680891FC95C891C4170012012E0052A06D1164806461436418302207071012014495E008E5B9100C9194E80114E2C
:40308000B61FF65C4E705B1C521CDBB2D2B2062BC7D30B4800F06CF8002C05D100F084F807490120891E087000F0D6F9002C01D0FF20F8BD0020F8BDDD300000940C0000B3
:4030C000920100208629010010B503480078012801D100F0F1FE10BD900100207047000010B5011F0878034A8000105800F0F4FF10BD0000C010002010B5044604498000C0
:40310000085800F057FF002801D00470001D10BDC010002038B5044692B2C9B2684600F06FFF024AA1000098505038BDC010002070B50B49064600204C68054661780029B0
:4031400008D06188B14202D32078FFF7D5FF002804D1241D6D1CEDB2082DEFD370BD0000B401002010B5002801D0FFF7B9FF10BD70B50B4E0446002570606178002905D038
:4031800062882078121D0023FFF7C4FF6D1C241DEDB2082DF1D3024800F0F0FFB06070BDB4010020002070471CB5002469460C70142001902346054A05480CF0FFFB0448E2
:4031C0000068401C00D1FF2420461CBD25320000C00100203EB5124A0146FF2000230124126800290DD0012914D0042908D104206946009308814B8110460CF0DAFB80B2FB
:403200003EBD6846009304814381694610460CF0CBFBF4E768460093048143816946EBE7C001002070B54589046841680089030000F026F806240408081D2124002005F024
:40324000BFF91BE0022908D0C8B22A4621460AF0A1FE2046FFF786FF10E002202A4621460AF098FE2946204600F018F806E000200CF098F802E020460CF026FC002070BD3A
:4032800030B47446641E2578641CAB4200D21D46635D5B00E31830BC18470000014B0022DB681847C401002070B5448905680089022803D0032809D0FF2070BD2246094C67
:4032C0000023A46829460120A04708E0FFF71AFE241DA2B200232946022006F07EF8002070BD0000C401002070470000024800214160018041807047C401002070B50C4633
:40330000002186B016460391012802D0022859D116E003A9012006F0B8F801281BD1039D324621462846FFF7D8FD0095287801900220694608814E816846FFF7B5FF41E059
:40334000214D002B686809D0049004A9022006F09CF801281DD0022006B070BD002812D0298840182146FFF7B8FD28880024801980B228806988091D884206D12C801348D8
:40338000FFF792FF03E00320E6E788421AD96C6018E004986860E278A378110219430B4A698000231060E3565360032313815181A1788170E178C170617841702178017079
:4033C000042028800020C7E7C4010020E01000203EB515460C46022803D004280CD000203EBD0091019002206946088107484A8100680CF0DEFA07E00AF0CCFD044B002291
:40340000DB6829462046984701203EBDC0010020C4010020014AD16090607047C4010020034801688068081A0A21484300097047EC10002010B5FFF7F1FB542204490548A4
:40344000FFF74BFD03490120C870002010BD0000962901003C13002010B5FFF7D3FB10BD70B5134C2368002B08D0207B1149C20705D04008400020738868A08070BD88680A
:403480000B4AA18880B29268814203D90A4D691A091802E0814202D2411A5118A160A080A0689842EAD300F015F80CF09FFA70BDEC100020C0102E40FFFF000010B50846A1
:4034C0001946FFF7A7FF10BD704710B5FFF780FF10BD000003480021016041608160C16070470000EC10002010B502000DD0FFF7F1FF074C0321207B0843207310010A214D
:40350000FFF74AFC2060002010BDFF2010BD0000EC10002000B504480A21806848430209FFF7D8FF104600BDEC1000200248007B8007C00F70470000EC10002070B5584980
:403540000868002802DA574B01221A70022290430860554800695249C00B4031096A08426CD0012000F0C2FA4F4850497C30FFF72DFB4B480E216C30FFF728FB4A48202142
:403580008430FFF723FB484814219C30FFF71EFB4548FF21C131A430FFF718FB4248FF212F31B030FFF712FB3F484149BC30FFF70DFB3D483F49AC30FFF708FB3D493A4855
:4035C000491CB430FFF702FB37483B49B830FFF7FDFA35483949CC30FFF7F8FA324838490830FFF7F3FA30483649A830FFF7EEFA2D4835498830FFF7E9FA2B4833498C30E2
:40360000FFF7E4FA28481921C9029030FFF7DEFA2F4D287E697E0C020443A87FE97F2D4A090201432C48914201D1072C08D035229201914208D1042C05D005E0FF2070BD10
:403640000146042400E0014617486C30FFF7BEFA154821467430FFF7B9FAA87EE97E0902014301204003814201D0002900D11B490D487830FFF7AAFA2A7F687F010218483E
:403680001143814204D01748814201D0052901D113490A3904488030FFF798FA002070BD00F02E40D401002000002E4055650000320300002F3F0000310200001052000009
:4036C000EC160000FA12000031D000003AE30000C0F0FF0F580B0000580D0000022000000F0F00000505000070B50646581C80B245086D00002408E0304600F07FF81055AF
:40370000000A1119A41C4870A4B2AC42F4D3D80705D0D0182038D15CC47FD454C17770BD30B50A4C002100195B1E07E0541864782502545C2C430480891C89B29942F5DB6F
:40374000994201D1515C018030BD000000102E4010B5FF2000F0CAF90F49FF2048700E481021801D41800121417001700A490020C91C4870FFF7E2FE04000AD100F0DEF889
:4037800007210648FFF714FA044807211830FFF70FFA204610BD0000D4010020CC112E4030B504465B1C1804450C002308E0204600F024F8241D59005B1CA4B250529BB27B
:4037C000AB42F4D330BD000070B500210A4D5B1E0AE0541864782602545C344346193480001D891C80B289B29942F2DB994202D1515C4019018070BD00102E400149401825
:403800000088704700102E40014A80180180704700102E4010B50B490020487000F08EF8002000F089F9002000F076F907210648FFF7BEF9044807211830FFF7B9F9002013
:4038400010BD0000D7010020CC112E4010B506480078012803D102210448FFF7B7F902490020C91E087010BDD701002070F02E4010B50B46062812D006DC01280CD0032806
:4038800001D1FFF7C7FF10BD0A28FCD00B28FAD105480078107010BDFFF75AFF10BD1146184600F065F910BDDA010020F8B5204DAC6A0127A0071F4E002816DA307806285E
:4038C0000ED1286A384328621B480069F903084381B219481030FFF779F9042000F006F9134802212830FFF763F9E00711D0062000F0FCF80F49FF20C91E487070780028D0
:4039000002D1686B38436863094801212830FFF74FF9E0050BD53078042802D1052000F0E5F80348FF2101312830FFF741F9F8BD40F02E40D701002000002E4010B503216D
:403940002348FFF743F90120FFF74EF920483038406A204C80076178800F890001431C480C38FFF733F96078002808D0401E022181401820FFF770FAC000083800E0B82076
:4039800081B21548FFF722F91348032109021438FFF71CF910481149B830FFF717F9452189010F48FFF712F90D480321001FFFF70DF90C490C48FFF709F90B480B49603829
:4039C000FFF704F9084801218838FFF7FFF810BD70F02E40DA010020D8102E4090890000041E2E40FF0F000058122E4020900000044800684007400F022801D0002070476E
:403A00000120704700010B4000B5FFF7F1FF002805D009480168C908C900016000BD0748016A490849000162054801690122D2039143016100BD000000010B4040F02E4015
:403A400000002E400849087806280BD148780749002803D1486B400840004863C86A01221043C86270470000D701002040F02E400148007870470000D7010020024840787A
:403A8000022800D001207047D401002000B50300FFF7F6FB080D050D0B070507090D012000BD032000BD042000BD022000BDFF2000BD0000074A9168D26889B2064B92B297
:403AC000994204D105498A4201D1012100E000210170704780002E4033D000003FE300000149487070470000D701002010B50446FFF78EF8072C01D9FF2C01D102480470C8
:403B0000FFF780F810BD0000D70100200149487070470000D401002010B5064A012805D01921C9021046FFF751F810BD1D21C902F8E7000090002E4010B50A4A141D0128D1
:403B400008D009491046FFF741F808492046FFF73DF810BD04491046891CFFF737F80349491DF3E788002E4031D000003AE300000078074AFF2803D04C2804D9553803E056
:403B80001078087070474F380870107070470000D601002010B50F4A002313600E4A13600E4B18600E4801600E49012008600E490860000290600E490C4808600D491430DC
:403BC0000860FF381538506000F0BCF800F0CAF9002010BDF8010020E00100200C02002010020020FC010020EC010020FC110020F001002004020020014610B50020002988
:403C000010D0094B1A689C685118A14209D25868196080188A0704D08A07920F891A091D196010BD002010BDE0010020F8B50024164E671E321F3D463168136806E0142280
:403C4000624310328A58521C1BD0641C9C42F6D36A1C14D02C461422544322460C3288500C214843FFF7C8FF3168002808510AD031680020103408517068401C70602846A3
:403C8000F8BD2546E4E73846F8BD0000F0010020F3B50026F64381B000281BDB1E490968884217D80299002914D01B4F142204463F1D54432546396810354859401C09D042
:403CC000FEF7A6FF38682F1F4159C359994203DBFEF798FF3046FEBD214608310091465801590C20704308180C220299FFF7F5F80948761C001D0068C159B14200D10026D0
:403D00000549009A091D865008684159491C4151FEF778FF0020FEBDEC010020002803DB07490968884202D90020C043704704491422091D09685043103008587047000000
:403D4000EC010020F0B500200D4A451E0346171F50600FE014260146714314680E1DA3510C461668083433511668083435511468401C635039688842ECD30020F0BD000077
:403D8000F0010020F3B50026F64381B0002841DB2349096888423DD8029900293AD0204F142204463F1D54432546396810354859401C2FD0FEF72CFF3868415900292BD03F
:403DC000211D009146580C21005971430F46C1190C220298FFF781F811480021001D0068761C00590C34C0190160416081600C48001D00680159B14200D100260849009AC8
:403E0000091D865008684159491E4151FEF7FAFE0020FEBD3046FEBDFEF7F4FEFAE70000EC010020FEB504460D4600201E49089E0860471E009001900290002C11D04868FB
:403E400085420ED2002A0CD0002E0AD0642E08D808460C3001681C2068430C18207A002801D03846FEBD0120226020721846FFF7DDFE6060401C13D06681A6810A48276106
:403E80000C3067610179A94200D205710021684601810A462846029B00F040F82846FEBD00202072DDE70000F801002038B50124009400F039F838BDFEB50027164EFF4389
:403EC0003D4600240EE01C20316860430818017A002906D04068FFF721FF002801D0254603E0641C3079A042EDDA681C12D01C2130684D434419FEF78BFE69466068FFF731
:403F000041FF0546FEF77EFE002DD9D1216868468847D5E7FEBD00000402002038B50024009400F001F838BD1FB500220C49541E0A60002811DB496888420ED808491C225D
:403F40000C31096850430818406801A9FFF7A0FE401C02D0002004B010BD2046FBE70000F8010020F0B50021114A4D1E174611710C3F0B46BD6016E008461C246043166801
:403F8000041D355114680646235014680836A3551468361DA353044616680A34335318301468491C255078688142E5D30020F0BD0402002038B500210091002811DB0F4925
:403FC000097888420DDA0D4D04010C3529680859002807D0201D0818694600F05FF9002801D0002038BDFEF713FE28680F34015D491E0155FEF706FE009838BD14020020EC
:40400000F7B582B00025ED43029800240E460560002A49D0002E47D02D48D21C02402D48174601780C30006805E022018258002A0FD0641CE4B28C42F7D3691C3ED02C0161
:40404000211D40180191314600F016F900282BD101E02546F1E71F480C30016820460C300F521C480C30016820460E300E5419480C30016820460F300E543846704300F00E
:40408000ADF814490C310968002808510CD00024009011E00F480C30016801980818009900F017F9002802D0012005B0F0BD0098C019641CE4B20090B442EBD302980549D0
:4040C00005600C310879401C08710020EDE70000FCFF000014020020F8B50D4600216A468C461180002839DB23490978884235DA214B04010C3319680A59002A2ED020464B
:404100000C300B5A801C0E5C184670438018954224D3854222D2002006E007465F43BF18AF4206D0401CC0B2B042F6D36046002814D0114E271DC8190C366A46294600F003
:40414000F2F800280AD168460088012808D030682946C01900F0BDF8002803D00120F8BD0020F8BDFEF754FD30680F34015D491C0155FEF747FDF3E7140200200346002004
:40418000002B06D0034A5168906852884018511A198070471402002070B5002400F0DCF80D4E002132460C3271600EE0200113680546195013680C355953AD1C13680F30A4
:4041C00059551368641C1954E4B230788442EDD31171002070BD000014020020014610B5002000290CD0C91C064B8A08596892005C888A18A24202D898685A60401810BD71
:40420000002010BD14020020F8B5002827DB19490978884223DA174C05010C342168485900281CD028460C30085A009028460E300E5C401C0E5420682F1DC01900F064F88A
:4042400000280CD12068002445590EE0094829460C300068C01900F03CF8002801D00120F8BD00982D18641CE4B2B442EED30020F8BD00001402002030B50D4604000BD005
:40428000A800FFF7ABFF6060002805D000202570C0436080002030BD012030BD70B50D46040005D0002D03D00220205E002801DA012070BDFEF7ACFC0221615E6068890034
:4042C000405828606088401E6080FEF79BFC002070BD70B50D46040007D0002D05D002212078615E401E814201DB012070BDFEF78FFC6088401C00B26080616880000D5089
:40430000FEF780FC002070BD10B5040009D0227800216068FEF7EAFD0020C0436080002010BD012010BDF0B500231D46002802D00224045F0AE00120F0BD46689F00F659DE
:404340008E4201D1012503E05B1CDBB29C42F4DA15700020F0BD0000054B11221A70054A1180064A04491160054908607047000014020020160200202C120020200200201A
:404380001C0200200148007870470000280200207CB505460024FEF7B5FDA8796946087000A8062229460130FEF797FD0021684604F064FB0C2804D0072804D01F2804D02D
:4043C00004E0022402E0042400E0272420467CBD10B502280BD0032802D0042809D102E000F0D4F805E000F0A3F9FF2801D100F0B3F9FFF73DFBFFF749FB10BD10B500F084
:40440000DBF9FFF735FBFFF741FB10BD10B503240BF0D4FF002810D10BF078FF00280CD105F082F8002808D100F0A2FB002804D104F07EFD002800D10024024900200870E0
:40444000204610BD2802002070B50025044600280ED0A07901280BD8FEF754FDA0790028204602D002F09EFF03E002F053FF00E00125284670BD10B5FFF7FAFA012801D140
:40448000FFF7FCFA10BD38B504460120002C20D0617801291DD800290BD0FF25E535FEF731FD2846FFF7AAF9C0B22070072803D00EE0FF25CD35F2E7002069460870684685
:4044C000FFF7F8FA69460878012801D108202070002038BD70B504460120002C1FD06178012902D92278092A19D8002906D0FF25E53520780726092803D003E0FF25CD3587
:40450000F7E72670FEF7FEFC2078082808D00020FFF712FB21782846FFF776F9002070BD0120FFF709FB2670F4E7000070B50D46040001D0002000E00548002802D001215A
:4045400002F0DAF82946204602F03CFC70BD0000B013002038B5054600200446009022466946284600F09CFF0098002801D00BF007FFA878214602F0E4F9A878214602F0C5
:40458000D3F9641CE4B2052CE9D338BDF8B5624CFFF76EFA012846D160480078002842D002F094FB0028FAD003F072FF0028F6D05B4E7078C00703D000F047FC0128EED0DA
:4045C000B07E0028E7D170780025002878D0000707D5AC20FFF712F9070B00F061F9384321D14F484178684603F030FE4D4F06462079B9784018C1B2B14271D802F066FB8C
:40460000002810D0464C203402F08DF96846008802F0B9F902F062FA43490988884203D10120FFF763FA74E04049012008703C48807B00282BD04034608A002827D0E07ECA
:40464000002824D1A1200001FFF7D8F8208A4000B04218D97878002815D1A12424012046FFF7CCF80221884301462046FFF7CCF8FF24F1342046FFF7C1F80321090201439B
:404680002046FFF7C1F83878002800D03D7002F0BDF90120FFF724FA244C08E0FEF7E8F8FFF7E6F906282CD02078002829D0FFF7DFF9062825D020780128EFD021E0FFE776
:4046C00002F004FB002824D0142002F05CF9174C0120207002F09AF90020FFF701FA09E015E0FEF7C5F8FFF7C3F9062809D02078002806D0FFF7BCF9062802D0207801283D
:40470000EFD0207801288BD1FFF77EF925700020F8BDFF20F8BD00007C130020D4010020901300202E020020400200202902002010B50848FF244078002809D102F0C6FAEA
:40474000012805D1FFF782F80720FFF7CFF90024204610BD9013002038B5FFF789F9012801D0002038BD02F0B1FA00280AD0114C6078C00703D000F068FB012802D0A07E7D
:40478000002801D0FF2038BD617800290FD0684603F05CFD022806D96846008802F0F3F8012002F039F90320FFF7A0F9D9E70020F7E700009013002038B5FFF759F904281C
:4047C00019D0052817D006281AD0032842D007280AD100206946087002460120FFF748F8FFF746F90128FBD138BDFEF741F8FFF73FF90128F8D0FFF73BF90128F5D138BDFD
:4048000002F028F905E0FEF733F8FFF731F9012803D0FFF72DF90128F5D1A12424012046FEF7ECFF01220E4983079B0F0A70022BE5D149880029E2D0104301462046FEF75D
:40484000E3FF2046FEF7DAFF410849002046FEF7DBFF38BD02F002F90120FFF747F938BD2E020020F8B50646002402F0ADFE0546304602F0C1FE00210346012632468A40DE
:40488000174610462F401840002F03D0002801D1224394B2491CC9B20529EFD32046F8BD70B500252C460A4E03E0002C01D0002000E030460079002803D02046FFF7D2FFE1
:4048C0000543641C2406240EEFD0284670BD0000B01300201CB50020694648706846FFF7D2FD01AA69460A20FEF7C2FF6946042008561CBD10B50C4601F076F9002809D0D0
:404900000179002906D0C1788078224602F008FB002010BD022010BD01480078704700007C1300204030C07E002800D00120704700B500F001F800BD8821484306494018B9
:404940006030417F491CC9B24177052901D300214177C8B2704700009013002013B501F043F904000BD001F09AFC002807D0214601AA0A310620FEF77BFF00201CBD022029
:404980001CBD000010B50C4601F02EF900280AD001F085FC002806D0224604490A20FEF767FF002010BD022010BD000065130020F3B581B0074601460026029802F0FCFDB7
:4049C0000446002F01D0002500E0154D002D21D0284601F03FF9032C04D13946029802F015FE06463846029901F09EFF032C06D0002C10D00121384601F01AFA03E031462C
:404A0000384602F0B7FF284601F05CFE0221284601F072FEFEBD3846029901F085FFFEBDB013002070B50446002503F0A5FB002801D00C2070BD2078611C02F06BFBFF28B1
:404A400002D01F25284670BD02F0B8FBFF2804D02178621C01F0DAFEF4E70725F2E710B503F08AFB002801D00C2010BD02F02AFB002010BD70B50D46044610210BF0C0FB49
:404A80001021601806460BF0BBFB334610221946204603F09DFB102130460BF0B1FB02202870204604F09CF970BD70B504464078217802028006850FE0781143A67809057B
:404AC0000002090D0643084601F08EF8002812D0022D10D0032D0ED0002E08D00179092909D0002907D0214600F0A1F870BD0089002104F0AAF820460BF042FC70BD002095
:404B0000704770B50446002503F036FB002801D00C2070BD2078611C02F0FCFAFF2802D002F03EFA00E01F25284670BD10B504F0FFF900F0F6F8002010BD10B504460078D2
:404B40006178E2780843A17811430843217908436179084305D003F001FB002803D00C2010BD122010BD204602F01CFC002010BD10B5044803F01CFC02F01CFA00F004F8D1
:404B8000002010BD4C130020F8B5114D00266E706E736E716E76AE76EE766E75AE70EE70AE712F46EE730120B03778723F2078719B20B87100F00AFA0024204601F036FB3C
:404BC000641C2406240EF8D03E72FE71AE73F8BD9013002070B505460E46084602F0F4FC0446304602F008FD0121A9400A46224001400A4301D0012070BD002070BD10B532
:404C00000446084602F0F8FC0121A140014201D0012010BD002010BD10B5FEF729FF032804D101F01BFF0120FEF760FF10BD70B5044600790D4609281CD000281AD0204605
:404C40004030817E491C8176204601F03BFDA078FFF76EFE064602462946204600F00CF8002806D1A0783146FFF760FC28460BF087FB70BD0846FAE7F7B5054648780C46D3
:404C80008006870FC8788978000282B0014368468180284601F00EFB060007D021462846049A00F091FB304605B0F0BD384600F039FC0746034601AA2946204600F0CAFAF7
:404CC00068468088231DC0B20090A878FF22049902F032F8684680883B46C2B2A878049902F0DCFBDFE770B5002500242846FFF7B9FD060010D03046E040C007C00F07D05A
:404D00002146284601F003FE21462846FFF750FE641CE4B2052CEED36D1C2D062D0EE4D070BD10B502F046F9FFF72EFF0BF090FB002010BDF8B5002400F081F801230128A0
:404D400000D10124104F00203E4620360425082203E0002801D0002100E031460979002907D001290BD002290BD0114681402143CCB2401C0006000EEBD07C70F8BD1C438B
:404D8000F7E72C43F5E700009013002010B5FFF7D1FF10BD10B50B4681791943817103D08078114602F03EFB10BD10B582798A43827102D1807802F04DFB10BD70B5FF259C
:404DC000D53502242846FEF719FD0C4A9178002901D0022906D1137852789A18282A01D9032402E0032900D101244105490DE00201432846FEF708FD70BD00002A020020AE
:404E000010B500F022F8002807D0012805D0032801D0042801D0002010BD012010BD014610B50020C90701D000F009F810BD014610B50020C90701D000F001F810BD10B5FF
:404E40002020FEF7DBFC000A10BD10B51820FEF7D5FC410501D5042010BD4007800F10BD38B5044640060CD5684601F007FE0220FFF78CFF072002F0B9F96846007801F055
:404E80003FF9200613D5FFF7E0FF01280FD1684601F0F4FD6846007800F09AFA072002F0A5F9012001F076FC0220FFF76FFF38BD10B5034A0178117002F0A7F9002010BD53
:404EC0002A02002010B50446FFF7B9FF002801D00C2010BDA27B01211848002A827801D00A4301E05208520082706279012A0FD0C17849084900C170207901280CD06188E7
:404F0000208802F0A5FF2080207904280BD00DE0C2780A43C270EFE7E01D02F02BFA0848808C208002E0E01D02F024FA054920798870204602F078F9002010BD9013002020
:404F40003C1300202A02002038B50478FFF777FF844201D10C2038BD002C18D0072069460870FFF74DFF012807D10121684600F08DF8012801D0092038BD6846007802F0CE
:404F800035F9FFF71BFF02F07FF9012010E0FFF737FF012806D1684601F070FD6846007800F04AFA072002F021F902F061F90220FFF7ECFE002038BD10B5034A01785170C4
:404FC00002F008FA002010BD2A02002038B568460BF06CF9002801D01F2038BD01210098C90201804180002505714571857107214173857302F018F9009C20220021204612
:40500000FDF774FF25702A460021601CFDF76EFF204602F0FAF8204602F0DCF900980BF0AFF9042200210248FDF760FF002038BD2A0200200346084800B5834209D81846BD
:4050400000F0D2FD002804D00089984201D1012000BD002000BD0000FF0E0000074A9179491C8906890E917138220A4092014907090E114308430249084070479013002046
:40508000FF0E0000C006C00E70470000F8B507460E4600240D4803E0002C01D0002500E005462979002905D0641C2406240EF3D00020F8BD204601F0B9F82E712046FFF78A
:4050C000CDFF28813C700120F8BD0000B013002010B503F0B1F80222002100F003F801F011FF10BD10B5094B40074907000F090F185A595A40185043C0086421FDF74CFE05
:40510000002800D1012080B210BD0000EA290100F7B53D20405C88B016460C46002829D030786946087200252046FFF7FBFB012800D00125204603A938300191009023462A
:405140000327A17E34332A46206A03F04BF902A8089900900B46019120463A4603A9243003F018F802466846007A3070204601F049F810460BB0F0BDFFB587B00C460546B9
:405180001078694608723D20005D1746002826D000262046FFF7C6FB012800D00126204603A93830019100902346A17E34333246206A03F017F902A80090291D019120469E
:4051C0002B1D03A924300A9A02F0E4FF02006846007A388002D1204601F014F810460BB0F0BDF7B53C20405C88B015460C4600280CD0287869460872002806D00026204638
:40520000FFF790FB012803D003E01F200BB0F0BD0126204603A938300191009023460327E17E34333246E06903F0DCF802A8089900900B46019120463A4603A9243002F02D
:40524000DBFF02466846007A2870204600F0E4FF1046DBE7FFB505463C20405C87B016460C46002810D0084601F024F801280BD0308869460883002809D000272046FFF742
:4052800051FB012805D005E000200BB0F0BD0220FBE70127204602A93830019100902346E17E34333A46E06903F09CF806A80090291D019120462B1D02A924300A9A02F098
:4052C0009BFF02466846008B30806846008BA870000AE870204600F09FFF1046D5E770B50D460446FFF71EFB01280AD0E87AA97A00020143A07801F0C3FC012808D00020A2
:4053000070BD00222421204602F0ECFC242070BD28214C200155204600F09AFB282070BD002801D0002000E003484030C07F012800D0002070470000B013002001460020B0
:4053400049070ED50021084B03E0002901D0002200E01A461279022A04D0491C0906090EF3D0704701207047B01300200146002049070ED50021084B03E0002901D00022EF
:4053800000E01A461279022A04D0491C0906090EF3D0704701207047B013002010B5044680346068002803D00AF0FEFF0020606010BD4030417070474030817070474030D8
:4053C000017070470171704792001018C166704770B53C2501F0F8F8040004D020460021433001F0EDFB2946204600F0C0FB002C02D0A07801F07AF870BD000010B500289F
:4054000001D0002000E00348002802D0008903F063FC10BDB013002010B5002801D0002000E00448002804D00179072901D100F041F810BDB013002010B501F0C5F80028D5
:4054400002D0807801F052F810BD00207047000070B50546008A00281ED010491122897A1140C90618D5294640314A8A098A521C4A4392B2D10800D10121540801E0621ACC
:4054800094B2A042FBD9FEF77DFF012804D1298AA878224601F0E4FC70BD00003C13002000230B60052A04D292001018C26E0A60C366704738B5044600200090A0790028EA
:4054C00014D14020015D052901D00E290ED168460AF0FCFE002809D12046009902F0EAFB03481021C28A2046FFF754FC38BD00003C13002010B50B4604460146184602F0AB
:40550000B9F8002802D020460AF044FF10BD13B5044601AA11460620FEF7AAF96846818861811CBD002800D10220704770470000F8B504462346401D543300909A1EA078DF
:40554000911E01F0AAFA25464035A88A298A8000FDF722FC401E81B2688A884203D96982A07801F0EAFF20460021433001F028FB8020FEF743F9E88102F05EFEE989891CDD
:405580008AB26179FFF7AEFD01F0BCFC02F054FE2A8A6179FFF7A6FD074601F0A5FC688A00280BD0FF26F1363046FEF727F90321090201433046FEF727F902E0002001F084
:4055C000AAFFFF206130FEF719F96E8A002E0BD070431049FDF740FC0004000C01D0401C80B20D49488002E00B4800214180288A704381B2A07801F0FBFE2837B9B22046A0
:4056000002F02AFCE98AA07801F04AFEA07801F0AEF9F8BD710200002E0200207FB504468034616805460E46183108226846FDF754FC31462031082202A8FDF74EFC10215C
:4056400068460AF0DDFD6068102108300AF0D8FD60682B46083024331022694602F0B8FD7FBD10B504460821FFF79FFB10212046FFF79BFB207905281FD006281DD0082831
:405680001AD12189002003F09FFA072020712046FFF748F9014620464030012913D00E21017000210176204600F02CFF2046FFF775FE2046FFF7CCFE10BD208901220021C2
:4056C00003F066FAE1E70521EAE70000FFB581B01F4604460821FFF768FB10212046FFF764FB2079082803D0092804D0042203E00422012501E009220025204600F0C6FD56
:40570000264600204036307022712046FFF746FE0398002D02D0012808D00BE001280AD120890022029903F033FA04E02189029803F04AFA012700203076012F04D02046CD
:4057400000F0E0FE05B0F0BD02983073204602F0F5FA054605480121C28A2046FFF71AFB002DEFD109202071ECE700003C13002070B50C460546FFF7D5F8012809D1082164
:405780002846FFF712FB0023012221462846FFF79DFF70BD10B5044600F078FD2046FFF7FDFD00214034217010BD70B505461A24FFF7B8F8012809D108212846FFF7F5FA0E
:4057C0000023012221462846FFF780FF70BD0000F8B50446002000900E4668460AF076FD002801D00D20F8BD8420005908212030009D00F0F4F920460421383000F0EFF940
:40580000002E02D1204600F07FFD2946204602F0E1F90E480821C28A2046FFF7BBFA204600F0D7FE25464035002808D0204600F023F8002801D0092028700020F8BD0820E5
:405840002870204600F03EFFF7E700003C130020014610B540310A460978082906D0092907D00A2901D100F091F810BD0B20107010BD00F001F810BD70B504460079254686
:405880004035052805D0062803D008280FD00C2070BD03220621204602F024FA0D480821C28A2046FFF776FA1120287010E006202873204602F042FA0646AA8A0A20424373
:4058C00001212046FFF766FA002E01D109202071002070BD3C13002038B504460020009068460AF0F3FC002801D00D2038BD2046009D00F08BF908202071204600F004FD34
:405900002946204602F098F900213D2001550F2040210855204600F0D5FE002038BD00B5024600F0B3FC10214032117000BD10B50446FEF7F7FF012809D04020005D1128A1
:4059400005D100231A4606212046FFF7BFFE10BD10B5FFF786FE10BD38B504460021684600910AF0B3FC00280CD12046009902F0DAF905480821C28A2046FFF70BFA0D205C
:405980004034207038BD00003C13002038B504460021684600910AF099FC002801D00D2038BD2046009902F0B3F905480821C28A2046FFF7EFF90C2040342070002038BD56
:4059C0003C13002000787047F8B50025002801D0002400E01A4C002C28D0204600F05FFC002823D0207903281CD005281CD026464036B18AA07801F009FDB078012815D1B8
:405A00000021204601F053FE274680373868002802D00AF0C9FC3D600020B0702079072805D007E0042000E006202071F8BD2046FFF70EFD0221204600F05EFEF8BD00005E
:405A4000B013002010B54C22115400F046F810BD10B50446FF21FFF7A8F909202071A07801F004FD10BD000038B5FF216A461180002801D0002400E0064C002C08D0114661
:405A80000620FDF7F5FE684601882046FFF73FFD38BD0000B013002010B504468079002809D022214C200155FF212046FFF77DF9204600F012F810BD10B50379024640320A
:405AC000002B03D01173092B02D003E0002100E02221117300F001F810BDFEB504460089002701902781207926464036002817D0012815D002280AD112E002AA6946204687
:405B000001F0A6FD002807D100980AF043FC204601F0C6FD0028F0D02046FEF71BFDB776254680352868002802D00AF03DFC2F606868002802D00AF037FC6F60317B002957
:405B400002D0019800F044F8A078002100F028FF2046FFF7BDFAA07801F07CF8A07800F0C5FC0B20FFF712F900F004FCFEBD70B50E46054602F05CFB044606702846FEF7DE
:405B8000D1FE014601204140204661700C3001F000F8002D10D02889608028464030C1782171002E10D169796171018AE180418A2181808A608107E01820FDF71FFEC0058E
:405BC000C00F207100206080204602F0A6FF70BD0A4610B50146002003F096F810BD10B50AF0EAF810BD000000B50146FFF74AFA002801D0002000E00348002802D00289E4
:405C00008A4200D0002000BDB013002038B5044680346068002806D168460AF067FB002801D100986060606838BD000010B5014600F040FB0128887802D0FEF77DFE10BDCE
:405C400088214843024940186030007F10BD00009013002070B5054604464035A87F012811D1A1788820084A484380186030067F3046FEF7AFFF002805D10220A877A07892
:405C8000314601F0ADF870BD9013002010B50E4CE079002816D0FFF726F80C48827FC17F808B00F06FFB01280CD10020E07100F0EEFE0446AC20FDF7A1FD010B02D0204614
:405CC00000F00EFA10BD0000401400209013002070477047490510B5490F0B00FDF7D0FA060704080C0C0F073E21FFF7ABFE10BD0821FFF7E1FE10BDFFF7EFFE10BDFFF783
:405D0000CBFE10BDF8B507460025002D01D0002600E0204E00F070FE3046403044890021418100F08FFE304600F0B9FA01282BD1A00702D52846FFF747FEE00602D528463B
:405D4000FFF792FEA00601D5FEF7CDFF600601D500F0CCFA200602D5284600F01DF8600702D5284600F0FEF9380402D52846FFF753FB780402D52846FFF740FBE00703D0FA
:405D800021463046FFF7A6FF6D1C2D062D0EBCD0F8BD0000B0130020F8B5002801D0002400E0204C002C39D025464035A878012834D1E98AA07801F073FA2046FEF7B2FDE4
:405DC00001282BD002F038FA2A8A6179FFF78AF9064601F089F82836B1B2204602F03CF8E98AA07801F05CFAFF206130FDF706FD6E8A0D4F0146002E11D0304648430B49D1
:405E0000FDF72AF80004000C01D0401C80B27880288A704381B2A07801F0EAFAF8BD0020F5E70000B01300202E0200207102000070B50D46124A010001D0002401E0144604
:405E40002034002C1BD0204600F034FA01280AD18820484380186030007FFEF7BBFE002801D101F0F5FE20464030817E491B8176204600F027FC2089294602F0E6FE70BD05
:405E80009013002070B503460088FFF7ADFE040013D000F004FA00280FD02079092819D02546997840352973204601F047FF0646A878012803D0AA8A02E0022070BDEA8890
:405EC0000A20424301212046FEF764FF002E01D109202071002070BD0EB5002217216B460292198100905A810120029B00990AF0CDFA0EBDF8B5184E0024F079002820D109
:405F00000025AC20FDF77AFC000B21E0204600F073FEFDF773FC07462A46214600F032FA01280FD00D48012187838577C477F171002D01D0002000E02030002801D000F037
:405F4000C1FBF8BDAC20FDF759FC000B641CE4B20028DBD1F8BD0000401400209013002010B50088FFF740FE002809D0014640310C460978082905D00B2903D00C2010BDA7
:405F8000022010BDFFF778FC002801D009202070002010BD70B503460088FFF725FE040008D0254640352878082805D00B2803D00C2070BD022070BD842000591022083064
:405FC000991CFCF78AFF2046FFF728FB2878082804D02046FFF7DAFC002801D00A202870204600F06FFB002070BD000010B50C46002121700088FFF7F7FD03000BD000F04A
:406000004EF9002807D009481121807A0840C00603D4112010BD022010BD022020701A8A1889002102F08CFE002010BD3C130020F8B50F46002100910088FFF7D5FD0400D3
:4060400012D000F02CF900280ED0E079410641D4617E02264A07002A08DB8907402500291ADA2843E07135E00220F8BD02F0E0F80021017021894180A1898180217E41700D
:40608000E189C1803E7005460178134802F0BEFB284602F0F9FD1DE0204600F011F9012806D068460AF012F9002803D00720F8BD2A20F8BDE07900992843E071204601F07D
:4060C00067FE607E0421304360760448C28A2046FEF760FE0020F8BD1D0400003C1300203EB500220F236C460292238100910190628169460EC900200AF0C8F93EBD0000A7
:4061000070B5054600F060FA040024D003202071254600264035EE76E6702046FFF708FA01F0A6F80920FEF731FEA07800F080FD0121204600F0E0FA2E706E70AE7000216D
:406140002046FFF714FD0649887B401C8873012001F0C0F970BD284601F088F970BD00009013002010B5002801D0002400E00A4C002C0FD020464030417802290AD1002168
:4061800041702046FEF7CEFB002803D10221204600F0B2FA10BD0000B013002070B503460D460088FFF720FD04000BD000F077F8002807D012481121807A0840C00603D435
:4061C000112070BD022070BD20464030418A008A491C41430804C10C5888884201D2122070BD20822079072802D12046FFF730F9022028702089002102F0CAFD002070BDDD
:406200003C130020016A491C016204D1817E491C4906490E81767047C169491CC16104D1C17E491C4906490EC176704770B500250646002801D0002400E0114C002C1CD069
:40624000882200212046FCF751FEA67000202646207140363070204600F018F8204601F01BFA084820820848B577807A1121084000D001202075012070BD002070BD00008D
:40628000B0130020B80B00003C130020002101628176C161C17620300177417770470079002805D0012803D0022801D001207047002070474030807F002800D00120704763
:4062C00040300078002807D0012805D0052803D00E2801D0012070470020704710B5807801F08AF9002800D0012010BD10B500F0CEFB0446AC20FDF781FA010B02D02046A5
:40630000FFF7EEFE10BD000070B5054604464035A87F002823D1FF206075A0788821144A484380186030417F8823491CC9B24177A078584380186030052901D300214177BD
:40634000A0788821484380186030467F0677A1783046FEF73FFC002802D00120A87770BD0220A877A078314600F03AFD70BD0000901300200020401C0006000EFBD00020DF
:4063800070470000F0B515468207920F85B0C004C00E02926A469080002D01D0002400E0514C002C29D0084600F026FC03906846808800280BD00298012845D0022843D05C
:4063C00003280CD03D20005D012872D086E00398FDF714FA01462046FFF799F87EE00020029002A809F052FF002807D03D20005D012876D12046FFF705FF72E06846029E0D
:406400008388324600210398FDF76EF90398FDF7F5F901462046FFF77AF8284600F0B9FA01AA21463046FEF773FE002806D0304609F09CFF3D204C21085528E0F577314617
:40644000204601F077FA4CE0002000902789684609F00CFF002802D0002005B0F0BD6846009E8388321D00210398FDF73DF90398FDF7C4F901462046FFF749F8284600F080
:4064800088FA25464035287E00280CD103E02046FFF7DEFA25E001AA21463046029BFEF76BFE002806D0304609F056FF3D202873EDE710E00298FFF739F8390A0001014369
:4064C0003770717068468088B070000AF0703046FFF702FD05E02046FFF794FE284600F058FA0120B9E70000B013002010B5044A917B002901D0491E9173FFF797FE10BD66
:4065000090130020F8B5074606464037B87F00283DD0B0788821009048431F4945186035287F0099FEF76BFB012831D0287F401CC4B2052C00D300240020B877FF276F7768
:406540002F77A87702460146009800F0C9FD717DFF2903D0304601F060F8777501F078FB00252F462246694630460097FEF798FF0099002902D03046FEF759FB641CE4B2CE
:40658000052C00D300246D1CEDB2052DEAD3F8BD0320B877F8BD00009013002010B502460021084B03E0002901D0002000E018460479944204D0491C0906090EF3D00020CC
:4065C00010BD0000B013002000B50120FFF7E6FF00BD10B5044601F02BFE2189018080346168416061682831816002F007FB10BDF7B50646087982B00C46092807D0A0782A
:40660000F0770846FFF756FE012806D010E0304609F0C0FE022005B0F0BDA1788820284A484380186030007FFEF7D4FA012810D0A078FEF775FE01280BD0377801213046BF
:4066400001F0B3FA25462035062F36D00B2F0FD107E06846027C21463046FEF74BFF0D20D9E72046FEF75EF9012801D1002028772046FFF7DBFA054604AA21463046FEF7E3
:40668000B0FD01205F2108556946087C0090A07833463A46294600F04FFB69460A7CA0780323294600F0FAFEA0782946FDF73EFF304609F06FFE0020ADE70120D7E70000C1
:4066C0009013002010B502464032937F0021002B03D1927E002A00D00121064AD279002A00D000210279092A00D10121807800F0FFFE10BD4014002070B50C460646FEF7C5
:4067000011F9002814D1012C0ED935464035A87800280DD1687802280AD03079092807D03046FFF7DBFD0446204600F00EFE70BD0124F9E770B50D4601280BD0082808D1DC
:40674000A8241146B020FDF75FF829462046FDF75BF870BD2020FAE710B501460820FDF753F810BD10B50446FF20F130012C01D1FF20D530002200F006FF1020FDF73EF84E
:406780000349A043088001461020FDF73DF810BD3202002010B504461020FDF72FF80449A043088001461020FDF72EF810BD00003202002010B50446012802D0082C07D187
:4067C00002E0FF20D53001E0FF20F13000F0D0FE1020FDF713F804492043088001461020FDF712F810BD00003202002010B504461020FDF703F804492043088001461020DA
:40680000FDF702F810BD000032020020F8B507460120B84085B214460E46012229467C2000F0B1FE32462946782000F0ACFE6078217800020143E078A5780002054360791C
:406840002679000206430C2047430D2080013C182046FCF7D9FF241D29462046FCF7D4FF201D3146FCF7D0FFF8BD401880B270478B00034310B5D10191201943C000FCF7D5
:40688000C3FF10BD70B505460C46407829780002014341200001FCF7B7FFE878A978000201430A48FCF7B0FF60782178000201438320C000FCF7A8FFE078A17800020143B7
:4068C00002480830FCF7A0FF70BD00001404000070B50D46044681B201208002FCF794FF210C0448FCF790FF81202946C000FCF78BFF70BD0404000070B5054600242846A2
:40690000FCF77CFF641CA4B2102CF8D370BD10B50C460146B020FCF777FFFF2021462D30FCF772FF10BD704710B50C460146B020FCF76AFF204600F051FE0021FCF764FFD7
:4069400010BD70B50C46054600F005F821462846FFF7DDFF70BD10B50C460146B020FCF753FFFF2021462930FCF74EFF10BD10B50146B020FCF748FFFF20002220211D3083
:4069800000F001FE10BD10B50146C020FCF73CFF10BD010210B54D310020FCF735FF10BD10B504020029014608D0B020FCF72CFF214675310020FCF727FF10BDB020FCF703
:4069C00023FF512000214001FCF71EFF00210348FCF71AFF21467631ECE70000240A000010B554210020FCF70FFF10BD10B553210020FCF709FF10BD10B503490888488059
:406A0000FFF7C8FE10BD00003202002010B550210020FCF7F9FE10BD10B50E2400280CD0C420FCF7EBFE20430146C420FCF7ECFE51210020FCF7E8FE10BDC420FCF7DEFE5B
:406A4000A043F1E710B502484088FFF7CFFE10BD3202002010B5FCF7F5FF10BD10B552210020FCF7D1FE10BD884201D8081A03E00022D243101A401880B2704710B50446E7
:406A80001820FCF7BBFE8004400F207010BD10B5B020FCF7B3FEC0B210BDF8B50E4601461C461546B020FCF7AFFEFF20E930FCF7A5FE0746FF200130FCF7A0FE3080FF200A
:406AC0000930FCF79BFE2880FF200530FCF796FE208079070698490F0170F8BD10B5C820FCF78CFE10BD10B50C46002812D05820FCF784FE2070000A60705C20FCF77EFEB8
:406B0000A070000AE0706020FCF778FE2071000A607110BDFF20C130FCF770FE2070000A6070FF20C530FCF769FEA070000AE070FF20C930E8E7000000B5024A00F004F842
:406B400000BD0000FF7F000000B51346FFF78CFF984201D8022800D2002000BD10B50146B020FCF751FE0248FCF748FE10BD0000080A000010B52420FCF740FE10BD10B573
:406B80000146B020FCF740FEFF202130FCF736FE10BD70B504466820FCF730FE06466C20FCF72CFE05467020FCF728FE2670310A6170A570290AE1702071000A607170BD54
:406BC00010B50446012905D01820FCF717FEC00B207010BD4820FCF711FE8007C00FF7E710B50146B020FCF70FFE0248FCF706FE10BD0000280A00000120C00270470000CB
:406C000010B50146B020FCF7FFFD0248FCF7F6FD10BD00000C0A000010B50C460146B020FCF7F2FD0321A0014902401810BD00008821074B414310B5C918FF2260314A7799
:406C40000A7700228A77114600F04AFA10BD00009013002088225043074A10B58018FF21603041770177002181770448418EFF201D3000F07DFC10BD901300203C13002082
:406C800010B50C460146B020FCF7BEFDFF202530FCF7B4FD0222214600F002F810BD000010B50023884201D8081A03E00024E443201A4018044980B2884201D8824200D972
:406CC0000123184610BD0000FF7F000010B5C420FCF794FD0006C00F10BD000010B50348FCF78CFDC007C00F10BD00002C0A0000F8B503465078167800020643D0789578E7
:406D00000002054350791779000288240743002900D098241946B020FCF776FD31462046FCF772FD201D2946FCF76EFD204608303946FCF769FDF8BDFFB581B014460D4668
:406D400006460A9FFFF768FF3B460021049AFCF73BFD02484019845505B0F0BD3602002070B506460D4611242520A40108214001FCF74AFD2B46324600212046FCF724FD15
:406D800070BD70B5212405466401FFF72FFE10232A4600212046FCF717FD70BD10B5044640782178000201438F20C000FCF72CFDE078A178000201430148FCF725FD10BDF8
:406DC0007C04000010B50C460146B020FCF71CFD802021460143FF202930FCF715FD10BD70B50D460146B020FCF70EFDFF241D342046FCF703FD01090901FF20294301301A
:406E000001432046FCF700FD70BDF8B500242646012807D0032802D0052808D105E002240A2604E004240C2601E004240D26492701463F013846FCF7E7FC25204001FCF7D2
:406E4000DDFCC5B228462042F7D0252031464001FCF7DAFC00213846FCF7D6FC2846F8BD70B50D46044601461646B020FCF7CCFC512029464001FCF7C7FC31460648FCF75F
:406E8000C3FC032189030820FFF794FC210275310020FCF7B9FC70BD240A000070B50D4604460146B020FCF7AFFCFF2029461930FCF7AAFC21024B310020FCF7A5FC70BD62
:406EC00070B5491E8CB205460146B020FCF79CFCFF2021461930FCF797FC29024C310020FCF792FC70BD0000054910B5884200D908460146FF206130FCF786FC10BD0000D3
:406F0000FF0F0000054910B5884200D908460146FF206530FCF778FC10BD0000FF0F000070B588251446002900D098250146B020FCF76AFC2846FCF761FC2070000A607088
:406F4000281DFCF75BFCA070000AE07028460830FCF754FC2071000A607170BD10B51446024611200B4680010021FCF719FC012C01D1FFF735FD10BD10B504460920C00116
:406F8000FCF73CFC2070000A60700448FCF736FCA070000AE070FFF723FD10BD840400000121814010B589B200227C2000F0EBFA10BD000070B5FF210120FFF7D3FBFF2169
:406FC0000820FFF7CFFB3020FFF7E4FB80210020FCF71AFC002211460320FCF749FC374DFF20A98DD530FCF70FFC0024FF26F1362146B020FCF708FC298F3046FCF704FC4B
:407000002046FFF727FE641C2406240EF0D0FF20A98FF930FCF7F8FB28481030044600F079F9204600F0BEF900F04CF8234CB82040346188FCF7E8FBA188BC20FCF7E4FBDF
:40704000E188C420FCF7E0FBFF20698EE130FCF7DBFBA12000210001FCF7D6FB3920FFF7C5FBFFF7C3FC93200721C000FCF7CCFBFFF7B6FCE020FFF73FFCE820FFF73CFC36
:40708000F020FFF739FC0020FEF722F8618A0C48FCF7BAFB0A482821001DFCF7B5FBFF210131AC20FCF7B0FB832000218000FCF7ABFB5B210020FCF7A7FB70BD3C130020BE
:4070C000140A000010B500217C20FCF79DFB00217820FCF799FB74210020FCF795FB10BD70B50D4601461446B020FCF78DFBFF261D363046FCF782FB01090901FF202943BF
:4071000001308143002C01D1102041403046FCF77BFB70BDF3B589B0FF2001900D208001009048780D7800020543C8788E780002064348790979000201437C200791FCF700
:407140005DFB06907820FCF759FB059074210020FCF75AFB18480024049026E00120A04087B20098FCF74AFB03900098FCF746FB02900098FCF742FB039A29465140029A96
:4071800072401143079A424011430BD10698074208D00598E040C1070998C90F814201D1019405E0641C0498E4B20078A042D5D801980BB0F0BD00007C13002070B5FF25F8
:4071C0007C20FCF71BFB0849002401230A7805E01946A140014205D0641CE4B2A242F7D8284670BD2546FBE77C13002010B504461820FCF703FB0721C90288436107890C3F
:4072000001431820FCF700FB10BD10B50446E020FFF772FB20782246401CC3B20021E020FCF77EFA10BD000010B5044641790079042817D040000843A17B032901D8C900B1
